{
  "transactions": [
    {
      "hash": "0xf4320023569ddcc3aab7da8a39b7388a3aeadf32da466a4b10709274999dcff5",
      "transactionType": "CREATE",
      "contractName": "Counter",
      "contractAddress": "0x5fbdb2315678afecb367f032d93f642f64180aa3",
      "function": null,
      "arguments": null,
      "transaction": {
        "from": "0xf39fd6e51aad88f6f4ce6ab8827279cfffb92266",
        "gas": "0x22597",
        "value": "0x0",
        "input": "0x6080604052348015600f57600080fd5b5060fe8061001e6000396000f3fe6080604052348015600f57600080fd5b5060043610603c5760003560e01c80633fb5c1cb1460415780638381f58a146066578063d09de08a14606e575b600080fd5b6054604c366004608a565b600090815590565b60405190815260200160405180910390f35b605460005481565b60746076565b005b60008054908060838360a2565b9190505550565b600060208284031215609b57600080fd5b5035919050565b60006001820160c157634e487b7160e01b600052601160045260246000fd5b506001019056fea2646970667358221220bd2e6d500352d0505369e417b172f9c613eebcb7ed90a50f4789d1db01f00ffc64736f6c634300081b0033",
        "nonce": "0x0",
        "chainId": "0x7a69"
      },
      "additionalContracts": [],
      "isFixedGasLimit": false
    },
    {
      "hash": "0xfc4831d57d8f9eddb686a6c6e10a468df70a5838700319b2780e9a7c6fdbbbcf",
      "transactionType": "CALL",
      "contractName": "Counter",
      "contractAddress": "0x5fbdb2315678afecb367f032d93f642f64180aa3",
      "function": "increment()",
      "arguments": [],
      "transaction": {
        "from": "0xf39fd6e51aad88f6f4ce6ab8827279cfffb92266",
        "to": "0x5fbdb2315678afecb367f032d93f642f64180aa3",
        "gas": "0xea3f",
        "value": "0x0",
        "input": "0xd09de08a",
        "nonce": "0x1",
        "chainId": "0x7a69"
      },
      "additionalContracts": [],
      "isFixedGasLimit": false
    },
    {
      "hash": "0xf65e225fd1cfdb621876d4d8faa8391647c7117931a57d2ffeeafc7e3f0eb3b7",
      "transactionType": "CALL",
      "contractName": "Counter",
      "contractAddress": "0x5fbdb2315678afecb367f032d93f642f64180aa3",
      "function": "setNumber(uint256)",
      "arguments": [
        "42"
      ],
      "transaction": {
        "from": "0xf39fd6e51aad88f6f4ce6ab8827279cfffb92266",
        "to": "0x5fbdb2315678afecb367f032d93f642f64180aa3",
        "gas": "0x8eb3",
        "value": "0x0",
        "input": "0x3fb5c1cb000000000000000000000000000000000000000000000000000000000000002a",
        "nonce": "0x2",
        "chainId": "0x7a69"
      },
      "additionalContracts": [],
      "isFixedGasLimit": false
    }
  ],
  "receipts": [
    {
      "status": "0x1",
      "cumulativeGasUsed": "0x1a6d5",
      "logs": [],
      "logsBloom": "0x00000000000000000000000000000000000000000000000000000000000000000000000000000000000000000000000000000000000000000000000000000000000000000000000000000000000000000000000000000000000000000000000000000000000000000000000000000000000000000000000000000000000000000000000000000000000000000000000000000000000000000000000000000000000000000000000000000000000000000000000000000000000000000000000000000000000000000000000000000000000000000000000000000000000000000000000000000000000000000000000000000000000000000000000000000000",
      "type": "0x2",
      "transactionHash": "0xf4320023569ddcc3aab7da8a39b7388a3aeadf32da466a4b10709274999dcff5",
      "transactionIndex": "0x0",
      "blockHash": "0x9e65287d89a5ff77bed648778f259954ec98ef4a95cb0879956bcb9b07a83f56",
      "blockNumber": "0x1",
      "gasUsed": "0x1a6d5",
      "effectiveGasPrice": "0x3b9aca01",
      "blobGasPrice": "0x1",
      "from": "0xf39fd6e51aad88f6f4ce6ab8827279cfffb92266",
      "to": null,
      "contractAddress": "0x5fbdb2315678afecb367f032d93f642f64180aa3"
    },
    {
      "status": "0x1",
      "cumulativeGasUsed": "0xa998",
      "logs": [],
      "logsBloom": "0x00000000000000000000000000000000000000000000000000000000000000000000000000000000000000000000000000000000000000000000000000000000000000000000000000000000000000000000000000000000000000000000000000000000000000000000000000000000000000000000000000000000000000000000000000000000000000000000000000000000000000000000000000000000000000000000000000000000000000000000000000000000000000000000000000000000000000000000000000000000000000000000000000000000000000000000000000000000000000000000000000000000000000000000000000000000",
      "type": "0x2",
      "transactionHash": "0xfc4831d57d8f9eddb686a6c6e10a468df70a5838700319b2780e9a7c6fdbbbcf",
      "transactionIndex": "0x0",
      "blockHash": "0xf1a07cb61b4286a5f4a001978e01b37ed3db90b826f79b9bebdc7190a01df68b",
      "blockNumber": "0x2",
      "gasUsed": "0xa998",
      "effectiveGasPrice": "0x3435345b",
      "blobGasPrice": "0x1",
      "from": "0xf39fd6e51aad88f6f4ce6ab8827279cfffb92266",
      "to": "0x5fbdb2315678afecb367f032d93f642f64180aa3",
      "contractAddress": null
    },
    {
      "status": "0x1",
      "cumulativeGasUsed": "0x110e8",
      "logs": [],
      "logsBloom": "0x00000000000000000000000000000000000000000000000000000000000000000000000000000000000000000000000000000000000000000000000000000000000000000000000000000000000000000000000000000000000000000000000000000000000000000000000000000000000000000000000000000000000000000000000000000000000000000000000000000000000000000000000000000000000000000000000000000000000000000000000000000000000000000000000000000000000000000000000000000000000000000000000000000000000000000000000000000000000000000000000000000000000000000000000000000000",
      "type": "0x2",
      "transactionHash": "0xf65e225fd1cfdb621876d4d8faa8391647c7117931a57d2ffeeafc7e3f0eb3b7",
      "transactionIndex": "0x1",
      "blockHash": "0xf1a07cb61b4286a5f4a001978e01b37ed3db90b826f79b9bebdc7190a01df68b",
      "blockNumber": "0x2",
      "gasUsed": "0x6750",
      "effectiveGasPrice": "0x3435345b",
      "blobGasPrice": "0x1",
      "from": "0xf39fd6e51aad88f6f4ce6ab8827279cfffb92266",
      "to": "0x5fbdb2315678afecb367f032d93f642f64180aa3",
      "contractAddress": null
    }
  ],
  "libraries": [],
  "pending": [],
  "returns": {},
  "timestamp": 1729584028,
  "chain": 31337,
  "commit": "50dd68a"
}